{
  "contractName": "notas",
  "abi": [
    {
      "inputs": [],
      "stateMutability": "nonpayable",
      "type": "constructor"
    },
    {
      "anonymous": false,
      "inputs": [
        {
          "indexed": false,
          "internalType": "string",
          "name": "",
          "type": "string"
        },
        {
          "indexed": false,
          "internalType": "bytes32",
          "name": "",
          "type": "bytes32"
        },
        {
          "indexed": false,
          "internalType": "uint32",
          "name": "",
          "type": "uint32"
        }
      ],
      "name": "alumno_evaluado",
      "type": "event"
    },
    {
      "anonymous": false,
      "inputs": [
        {
          "indexed": false,
          "internalType": "string",
          "name": "",
          "type": "string"
        }
      ],
      "name": "evento_revision",
      "type": "event"
    },
    {
      "inputs": [],
      "name": "profesor",
      "outputs": [
        {
          "internalType": "address",
          "name": "",
          "type": "address"
        }
      ],
      "stateMutability": "view",
      "type": "function"
    },
    {
      "inputs": [
        {
          "internalType": "string",
          "name": "_asignatura",
          "type": "string"
        },
        {
          "internalType": "string",
          "name": "_idAlumno",
          "type": "string"
        },
        {
          "internalType": "uint32",
          "name": "_nota",
          "type": "uint32"
        }
      ],
      "name": "Evaluar",
      "outputs": [
        {
          "internalType": "uint32",
          "name": "",
          "type": "uint32"
        }
      ],
      "stateMutability": "nonpayable",
      "type": "function"
    },
    {
      "inputs": [
        {
          "internalType": "string",
          "name": "_asignatura",
          "type": "string"
        },
        {
          "internalType": "string",
          "name": "_idAlumno",
          "type": "string"
        }
      ],
      "name": "VerNotas",
      "outputs": [
        {
          "internalType": "uint32",
          "name": "",
          "type": "uint32"
        }
      ],
      "stateMutability": "view",
      "type": "function"
    },
    {
      "inputs": [
        {
          "internalType": "string",
          "name": "_asignatura",
          "type": "string"
        },
        {
          "internalType": "string",
          "name": "_idAlumno",
          "type": "string"
        }
      ],
      "name": "Revision",
      "outputs": [],
      "stateMutability": "nonpayable",
      "type": "function"
    },
    {
      "inputs": [
        {
          "internalType": "string",
          "name": "_asignatura",
          "type": "string"
        }
      ],
      "name": "Lista_revision",
      "outputs": [
        {
          "internalType": "string[]",
          "name": "",
          "type": "string[]"
        }
      ],
      "stateMutability": "view",
      "type": "function"
    }
  ],
  "bytecode": "0x608060405234801561001057600080fd5b50336000806101000a81548173ffffffffffffffffffffffffffffffffffffffff021916908373ffffffffffffffffffffffffffffffffffffffff160217905550610bd1806100606000396000f3fe608060405234801561001057600080fd5b50600436106100575760003560e01c806333871ad91461005c5780637d7b6be41461008c57806395bb498f146100bc578063df096576146100ec578063df3bba9f1461010a575b600080fd5b610076600480360381019061007191906106ca565b610126565b6040516100839190610a00565b60405180910390f35b6100a660048036038101906100a1919061061d565b61025e565b6040516100b3919061095e565b60405180910390f35b6100d660048036038101906100d1919061065e565b6103f6565b6040516100e39190610a00565b60405180910390f35b6100f4610457565b6040516101019190610943565b60405180910390f35b610124600480360381019061011f919061065e565b61047c565b005b6000338073ffffffffffffffffffffffffffffffffffffffff166000809054906101000a900473ffffffffffffffffffffffffffffffffffffffff1673ffffffffffffffffffffffffffffffffffffffff16146101b8576040517f08c379a00000000000000000000000000000000000000000000000000000000081526004016101af906109e0565b60405180910390fd5b600085856040516020016101cd92919061091f565b604051602081830303815290604052805190602001209050836001600083815260200190815260200160002060006101000a81548163ffffffff021916908363ffffffff1602179055507f67eaecb4e08725746e0c42cbb16d689afa15b1cecfb49adb590eeedc7683de1c86828660405161024a939291906109a2565b60405180910390a183925050509392505050565b6060338073ffffffffffffffffffffffffffffffffffffffff166000809054906101000a900473ffffffffffffffffffffffffffffffffffffffff1673ffffffffffffffffffffffffffffffffffffffff16146102f0576040517f08c379a00000000000000000000000000000000000000000000000000000000081526004016102e7906109e0565b60405180910390fd5b6002836040516103009190610908565b9081526020016040518091039020805480602002602001604051908101604052809291908181526020016000905b828210156103ea578382906000526020600020018054600181600116156101000203166002900480601f0160208091040260200160405190810160405280929190818152602001828054600181600116156101000203166002900480156103d65780601f106103ab576101008083540402835291602001916103d6565b820191906000526020600020905b8154815290600101906020018083116103b957829003601f168201915b50505050508152602001906001019061032e565b50505050915050919050565b600080838360405160200161040c92919061091f565b60405160208183030381529060405280519060200120905060006001600083815260200190815260200160002060009054906101000a900463ffffffff169050809250505092915050565b6000809054906101000a900473ffffffffffffffffffffffffffffffffffffffff1681565b60028260405161048c9190610908565b9081526020016040518091039020819080600181540180825580915050600190039060005260206000200160009091909190915090805190602001906104d392919061050f565b507fafd73f39162aa4c0421f362f3a3d26f44b23c73253256cfc1c68794b0973e0a0816040516105039190610980565b60405180910390a15050565b828054600181600116156101000203166002900490600052602060002090601f016020900481019282601f1061055057805160ff191683800117855561057e565b8280016001018555821561057e579182015b8281111561057d578251825591602001919060010190610562565b5b50905061058b919061058f565b5090565b6105b191905b808211156105ad576000816000905550600101610595565b5090565b90565b600082601f8301126105c557600080fd5b81356105d86105d382610a48565b610a1b565b915080825260208301602083018583830111156105f457600080fd5b6105ff838284610b31565b50505092915050565b60008135905061061781610b84565b92915050565b60006020828403121561062f57600080fd5b600082013567ffffffffffffffff81111561064957600080fd5b610655848285016105b4565b91505092915050565b6000806040838503121561067157600080fd5b600083013567ffffffffffffffff81111561068b57600080fd5b610697858286016105b4565b925050602083013567ffffffffffffffff8111156106b457600080fd5b6106c0858286016105b4565b9150509250929050565b6000806000606084860312156106df57600080fd5b600084013567ffffffffffffffff8111156106f957600080fd5b610705868287016105b4565b935050602084013567ffffffffffffffff81111561072257600080fd5b61072e868287016105b4565b925050604061073f86828701610608565b9150509250925092565b600061075583836107f0565b905092915050565b61076681610ae5565b82525050565b600061077782610a84565b6107818185610aa7565b93508360208202850161079385610a74565b8060005b858110156107cf57848403895281516107b08582610749565b94506107bb83610a9a565b925060208a01995050600181019050610797565b50829750879550505050505092915050565b6107ea81610af7565b82525050565b60006107fb82610a8f565b6108058185610ab8565b9350610815818560208601610b40565b61081e81610b73565b840191505092915050565b600061083482610a8f565b61083e8185610ac9565b935061084e818560208601610b40565b61085781610b73565b840191505092915050565b600061086d82610a8f565b6108778185610ada565b9350610887818560208601610b40565b80840191505092915050565b60006108a0602d83610ac9565b91507f4e6f207469656e6573207065726d69736f73207061726120656a65637574617260008301527f20657374612066756e63696f6e000000000000000000000000000000000000006020830152604082019050919050565b61090281610b21565b82525050565b60006109148284610862565b915081905092915050565b600061092b8285610862565b91506109378284610862565b91508190509392505050565b6000602082019050610958600083018461075d565b92915050565b60006020820190508181036000830152610978818461076c565b905092915050565b6000602082019050818103600083015261099a8184610829565b905092915050565b600060608201905081810360008301526109bc8186610829565b90506109cb60208301856107e1565b6109d860408301846108f9565b949350505050565b600060208201905081810360008301526109f981610893565b9050919050565b6000602082019050610a1560008301846108f9565b92915050565b6000604051905081810181811067ffffffffffffffff82111715610a3e57600080fd5b8060405250919050565b600067ffffffffffffffff821115610a5f57600080fd5b601f19601f8301169050602081019050919050565b6000819050602082019050919050565b600081519050919050565b600081519050919050565b6000602082019050919050565b600082825260208201905092915050565b600082825260208201905092915050565b600082825260208201905092915050565b600081905092915050565b6000610af082610b01565b9050919050565b6000819050919050565b600073ffffffffffffffffffffffffffffffffffffffff82169050919050565b600063ffffffff82169050919050565b82818337600083830152505050565b60005b83811015610b5e578082015181840152602081019050610b43565b83811115610b6d576000848401525b50505050565b6000601f19601f8301169050919050565b610b8d81610b21565b8114610b9857600080fd5b5056fea26469706673582212204bba99ba0f2b7134e34e99f5c2c8e1fcd3f8cfc5bd6e5906cfa5fdc7a7bbcfa864736f6c63430006060033",
  "immutableReferences": {},
  "source": "// SPDX-License-Identifier: MIT\npragma solidity ^0.6.0;\npragma experimental  ABIEncoderV2;\n\n//----------------------------\n//  ALUMNO /    ID    /  NOTA\n//----------------------------\n// Marcos  / 77755N   /   5\n// Joan    / 12345N   /   9\n// Maria   / 02468T   /   2\n// Marta   / 13579U   /   3\n// Alba    / 98765Z   /   5\n\n\ncontract notas{\n    //Direccion del profesior\n    address public profesor;\n\n    //Constructor\n    constructor() public {\n        profesor = msg.sender;\n\n    }\n    //Mapping para relacionar el hash de la identidad del alumno con su nota del examen\n    mapping(bytes32 => uint32) Notas;\n\n    //Array de los alumnos que piden revision de examen\n    mapping(string => string[]) revision;\n    //string[] revision;\n\n    //Eventos\n    event alumno_evaluado(string,bytes32,uint32);\n    event evento_revision(string);\n\n    modifier unicamenteProfesor(address _direccion){\n        require (profesor == _direccion,\"No tienes permisos para ejecutar esta funcion\");\n        _;\n    }\n\n    //Funcion para evaluar a alumno\n    function Evaluar (string memory _asignatura,string memory _idAlumno, uint32 _nota)public unicamenteProfesor(msg.sender) returns(uint32){\n        //hash de la identificacion del alumno\n        bytes32 hash_idAlumno = keccak256(abi.encodePacked(_asignatura,_idAlumno));\n        //Relacion entre el hash del la identificacion del alumno y su nota\n        Notas[hash_idAlumno] = _nota;\n        //Emision del evento\n        emit alumno_evaluado(_asignatura,hash_idAlumno,_nota);\n        return _nota;\n\n    }\n    //ver notas del alumno\n    function VerNotas (string memory _asignatura,string memory _idAlumno) public view returns(uint32){\n        //hash de la identificacion del alumno\n        bytes32 hash_idAlumno = keccak256(abi.encodePacked(_asignatura,_idAlumno));\n        //Nota asociada al hash del alumno\n        uint32 nota_alumno = Notas[hash_idAlumno];\n        //visualizar la nota\n        return nota_alumno;\n    }\n\n    //solicitar Revision\n    function Revision(string memory _asignatura,string memory _idAlumno)  public{\n        //Almacenamiento de la identidad del alumno en un arreglo\n        //revision.push(_idAlumno);\n        revision[_asignatura].push(_idAlumno);\n        emit evento_revision(_idAlumno);\n\n    }\n\n    function Lista_revision(string memory _asignatura) public unicamenteProfesor(msg.sender) view returns(string[] memory){\n        return revision[_asignatura];\n\n    }\n\n}",
  "sourcePath": "/home/zaharina/Developer/Truffle/notas/contracts/notas.sol",
  "compiler": {
    "name": "solc",
    "version": "0.6.6+commit.6c089d02.Emscripten.clang"
  },
  "schemaVersion": "3.4.8",
  "updatedAt": "2022-08-19T04:35:05.085Z",
  "devdoc": {
    "methods": {}
  },
  "userdoc": {
    "methods": {}
  }
}