{
  "contractName": "notas",
  "abi": [
    {
      "inputs": [],
      "stateMutability": "nonpayable",
      "type": "constructor"
    },
    {
      "anonymous": false,
      "inputs": [
        {
          "indexed": false,
          "internalType": "bytes32",
          "name": "",
          "type": "bytes32"
        },
        {
          "indexed": false,
          "internalType": "uint32",
          "name": "",
          "type": "uint32"
        }
      ],
      "name": "alumno_evaluado",
      "type": "event"
    },
    {
      "anonymous": false,
      "inputs": [
        {
          "indexed": false,
          "internalType": "string",
          "name": "",
          "type": "string"
        }
      ],
      "name": "evento_revision",
      "type": "event"
    },
    {
      "inputs": [],
      "name": "profesor",
      "outputs": [
        {
          "internalType": "address",
          "name": "",
          "type": "address"
        }
      ],
      "stateMutability": "view",
      "type": "function",
      "constant": true
    },
    {
      "inputs": [
        {
          "internalType": "string",
          "name": "_idAlumno",
          "type": "string"
        },
        {
          "internalType": "uint32",
          "name": "_nota",
          "type": "uint32"
        }
      ],
      "name": "Evaluar",
      "outputs": [
        {
          "internalType": "uint32",
          "name": "",
          "type": "uint32"
        }
      ],
      "stateMutability": "nonpayable",
      "type": "function"
    },
    {
      "inputs": [
        {
          "internalType": "string",
          "name": "_idAlumno",
          "type": "string"
        }
      ],
      "name": "VerNotas",
      "outputs": [
        {
          "internalType": "uint32",
          "name": "",
          "type": "uint32"
        }
      ],
      "stateMutability": "view",
      "type": "function",
      "constant": true
    },
    {
      "inputs": [
        {
          "internalType": "string",
          "name": "_idAlumno",
          "type": "string"
        }
      ],
      "name": "Revision",
      "outputs": [],
      "stateMutability": "nonpayable",
      "type": "function"
    },
    {
      "inputs": [],
      "name": "Lista_revision",
      "outputs": [
        {
          "internalType": "string[]",
          "name": "",
          "type": "string[]"
        }
      ],
      "stateMutability": "view",
      "type": "function",
      "constant": true
    }
  ],
  "bytecode": "0x608060405234801561001057600080fd5b50336000806101000a81548173ffffffffffffffffffffffffffffffffffffffff021916908373ffffffffffffffffffffffffffffffffffffffff160217905550610aac806100606000396000f3fe608060405234801561001057600080fd5b50600436106100575760003560e01c80632cd22cd81461005c57806333731af614610078578063421694d7146100a8578063560bbba5146100d8578063df096576146100f6575b600080fd5b610076600480360381019061007191906105c8565b610114565b005b610092600480360381019061008d91906105c8565b61018a565b60405161009f91906108db565b60405180910390f35b6100c260048036038101906100bd9190610609565b6101e8565b6040516100cf91906108db565b60405180910390f35b6100e061031b565b6040516100ed919061084e565b60405180910390f35b6100fe610495565b60405161010b9190610833565b60405180910390f35b60028190806001815401808255809150506001900390600052602060002001600090919091909150908051906020019061014f9291906104ba565b507fafd73f39162aa4c0421f362f3a3d26f44b23c73253256cfc1c68794b0973e0a08160405161017f9190610899565b60405180910390a150565b6000808260405160200161019e919061081c565b60405160208183030381529060405280519060200120905060006001600083815260200190815260200160002060009054906101000a900463ffffffff1690508092505050919050565b6000338073ffffffffffffffffffffffffffffffffffffffff166000809054906101000a900473ffffffffffffffffffffffffffffffffffffffff1673ffffffffffffffffffffffffffffffffffffffff161461027a576040517f08c379a0000000000000000000000000000000000000000000000000000000008152600401610271906108bb565b60405180910390fd5b60008460405160200161028d919061081c565b604051602081830303815290604052805190602001209050836001600083815260200190815260200160002060006101000a81548163ffffffff021916908363ffffffff1602179055507f18ea5812c152de09d06db4d36c68a3c862b3ca7d87e16f32acb0efd5943f206b8185604051610308929190610870565b60405180910390a1839250505092915050565b6060338073ffffffffffffffffffffffffffffffffffffffff166000809054906101000a900473ffffffffffffffffffffffffffffffffffffffff1673ffffffffffffffffffffffffffffffffffffffff16146103ad576040517f08c379a00000000000000000000000000000000000000000000000000000000081526004016103a4906108bb565b60405180910390fd5b6002805480602002602001604051908101604052809291908181526020016000905b8282101561048b578382906000526020600020018054600181600116156101000203166002900480601f0160208091040260200160405190810160405280929190818152602001828054600181600116156101000203166002900480156104775780601f1061044c57610100808354040283529160200191610477565b820191906000526020600020905b81548152906001019060200180831161045a57829003601f168201915b5050505050815260200190600101906103cf565b5050505091505090565b6000809054906101000a900473ffffffffffffffffffffffffffffffffffffffff1681565b828054600181600116156101000203166002900490600052602060002090601f016020900481019282601f106104fb57805160ff1916838001178555610529565b82800160010185558215610529579182015b8281111561052857825182559160200191906001019061050d565b5b509050610536919061053a565b5090565b61055c91905b80821115610558576000816000905550600101610540565b5090565b90565b600082601f83011261057057600080fd5b813561058361057e82610923565b6108f6565b9150808252602083016020830185838301111561059f57600080fd5b6105aa838284610a0c565b50505092915050565b6000813590506105c281610a5f565b92915050565b6000602082840312156105da57600080fd5b600082013567ffffffffffffffff8111156105f457600080fd5b6106008482850161055f565b91505092915050565b6000806040838503121561061c57600080fd5b600083013567ffffffffffffffff81111561063657600080fd5b6106428582860161055f565b9250506020610653858286016105b3565b9150509250929050565b60006106698383610704565b905092915050565b61067a816109c0565b82525050565b600061068b8261095f565b6106958185610982565b9350836020820285016106a78561094f565b8060005b858110156106e357848403895281516106c4858261065d565b94506106cf83610975565b925060208a019950506001810190506106ab565b50829750879550505050505092915050565b6106fe816109d2565b82525050565b600061070f8261096a565b6107198185610993565b9350610729818560208601610a1b565b61073281610a4e565b840191505092915050565b60006107488261096a565b61075281856109a4565b9350610762818560208601610a1b565b61076b81610a4e565b840191505092915050565b60006107818261096a565b61078b81856109b5565b935061079b818560208601610a1b565b80840191505092915050565b60006107b4602d836109a4565b91507f4e6f207469656e6573207065726d69736f73207061726120656a65637574617260008301527f20657374612066756e63696f6e000000000000000000000000000000000000006020830152604082019050919050565b610816816109fc565b82525050565b60006108288284610776565b915081905092915050565b60006020820190506108486000830184610671565b92915050565b600060208201905081810360008301526108688184610680565b905092915050565b600060408201905061088560008301856106f5565b610892602083018461080d565b9392505050565b600060208201905081810360008301526108b3818461073d565b905092915050565b600060208201905081810360008301526108d4816107a7565b9050919050565b60006020820190506108f0600083018461080d565b92915050565b6000604051905081810181811067ffffffffffffffff8211171561091957600080fd5b8060405250919050565b600067ffffffffffffffff82111561093a57600080fd5b601f19601f8301169050602081019050919050565b6000819050602082019050919050565b600081519050919050565b600081519050919050565b6000602082019050919050565b600082825260208201905092915050565b600082825260208201905092915050565b600082825260208201905092915050565b600081905092915050565b60006109cb826109dc565b9050919050565b6000819050919050565b600073ffffffffffffffffffffffffffffffffffffffff82169050919050565b600063ffffffff82169050919050565b82818337600083830152505050565b60005b83811015610a39578082015181840152602081019050610a1e565b83811115610a48576000848401525b50505050565b6000601f19601f8301169050919050565b610a68816109fc565b8114610a7357600080fd5b5056fea2646970667358221220c197d31eb43c059a4622b96c21799ca6dadfe422f2a9fb235afa29f5c83a124864736f6c63430006060033",
  "immutableReferences": {},
  "source": "// SPDX-License-Identifier: MIT\npragma solidity ^0.6.0;\npragma experimental  ABIEncoderV2;\n\n//----------------------------\n//  ALUMNO /    ID    /  NOTA\n//----------------------------\n// Marcos  / 77755N   /   5\n// Joan    / 12345N   /   9\n// Maria   / 02468T   /   2\n// Marta   / 13579U   /   3\n// Alba    / 98765Z   /   5\n\n\ncontract notas{\n    //Direccion del profesior\n    address public profesor;\n\n    //Constructor\n    constructor() public {\n        profesor = msg.sender;\n\n    }\n    //Mapping para relacionar el hash de la identidad del alumno con su nota del examen\n    mapping(bytes32 => uint32) Notas;\n\n    //Array de los alumnos que piden revision de examen\n    string[] revision;\n\n    //Eventos\n    event alumno_evaluado(bytes32,uint32);\n    event evento_revision(string);\n\n    modifier unicamenteProfesor(address _direccion){\n        require (profesor == _direccion,\"No tienes permisos para ejecutar esta funcion\");\n        _;\n    }\n\n    //Funcion para evaluar a alumno\n    function Evaluar (string memory _idAlumno, uint32 _nota)public unicamenteProfesor(msg.sender) returns(uint32){\n        //hash de la identificacion del alumno\n        bytes32 hash_idAlumno = keccak256(abi.encodePacked(_idAlumno));\n        //Relacion entre el hash del la identificacion del alumno y su nota\n        Notas[hash_idAlumno] = _nota;\n        //Emision del evento\n        emit alumno_evaluado(hash_idAlumno,_nota);\n        return _nota;\n\n    }\n    //ver notas del alumno\n    function VerNotas (string memory _idAlumno) public view returns(uint32){\n        //hash de la identificacion del alumno\n        bytes32 hash_idAlumno = keccak256(abi.encodePacked(_idAlumno));\n        //Nota asociada al hash del alumno\n        uint32 nota_alumno = Notas[hash_idAlumno];\n        //visualizar la nota\n        return nota_alumno;\n    }\n\n    //solicitar Revision\n    function Revision(string memory _idAlumno)  public{\n        //Almacenamiento de la identidad del alumno en un arreglo\n        revision.push(_idAlumno);\n        emit evento_revision(_idAlumno);\n\n    }\n\n    function Lista_revision() public unicamenteProfesor(msg.sender) view returns(string[] memory){\n        return revision;\n\n    }\n\n}",
  "sourcePath": "/home/zaharina/Developer/Truffle/notas/contracts/notas.sol",
  "compiler": {
    "name": "solc",
    "version": "0.6.6+commit.6c089d02.Emscripten.clang"
  },
  "schemaVersion": "3.4.8",
  "updatedAt": "2022-08-18T19:40:09.625Z",
  "networkType": "ethereum",
  "devdoc": {
    "methods": {}
  },
  "userdoc": {
    "methods": {}
  }
}